S0100000446F6F7242656C6C2E7372656301
S11300000C942A000C9434000C9434000C943400A6
S11300100C9434000C9434000C9434000C9434008C
S11300200C9434000C9434000C9434000C9434007C
S11300300C9434000C9434000C9434000C9434006C
S11300400C9434000C9434000C9434000C9434005C
S11300500C94340011241FBECFE5D4E0DEBFCDBF25
S11300600E9436000C9470000C94000017BA80E1D2
S113007088BB8D9A1FBC1EBC8FB582688FBD8EB5A0
S11300808C618EBD8FE290E09BBD8ABD80E792E0DB
S113009097BD86BD2FE230E065E270E049E350E0B1
S11300A086B3807186BB8823B9F08FE799EAE3E0D1
S11300B081509040E040E1F700C000007BBD6ABD84
S11300C08FE799EAE3E081509040E040E1F700C017
S11300D000005BBD4ABD02C03BBD2ABD0000E0CFAD
S10700E0F894FFCFBE
S9030000FC
